:02000000992B3A
:0E0006008312031322088A00210882000800DA
:10001400831203132230FC00F801F901FA01FB01F9
:10002400FC03031940280310FB0CFA0CF90CF80C20
:10003400F30CF20CF10CF00C031C1228FC03031952
:1000440032287408F80775080318750FF90776083D
:100054000318760FFA0777080318770FFB0716289B
:100064007408F80775080318750FF907760803185C
:0E007400760FFA0777080318770FFB070800CE
:1000820083120313FB01FA01F901F801A001730DB8
:10009200F80D7408F8027508031C750FF90276084A
:1000A200031C760FFA027708031C770FFB0200018C
:1000B200031C0130A002F30D0730FC00730DF80D94
:1000C200F90DFA0DFB0DA00D7408731C7A28F802C5
:1000D2007508031C750FF9027608031C760FFA02E5
:1000E2007708031C770FFB020001031C0130A002FA
:1000F2008B28F80775080318750FF9077608031897
:10010200760FFA0777080318770FFB070001031829
:100112000130A007F30DFC0B5F28720DF80DF90DED
:10012200FA0DFB0DA00D7408731CA928F8027508BE
:10013200031C750FF9027608031C760FFA02770882
:10014200031C770FFB020001031C0130A002BA2836
:10015200F80775080318750FF90776080318760F64
:10016200FA0777080318770FFB070001031801301D
:10017200A007F20D0730FC00720DF80DF90DFA0D13
:10018200FB0DA00D7408721CD828F8027508031C18
:10019200750FF9027608031C760FFA027708031C22
:1001A200770FFB020001031C0130A002E928F807C7
:1001B20075080318750FF90776080318760FFA0702
:1001C20077080318770FFB07000103180130A00717
:1001D200F20DFC0BBD28710DF80DF90DFA0DFB0D9A
:1001E200A00D7408721C0729F8027508031C750F0C
:1001F200F9027608031C760FFA027708031C770FC0
:10020200FB020001031C0130A0021829F80775083F
:100212000318750FF90776080318760FFA0777089F
:100222000318770FFB07000103180130A007F10D37
:100232000730FC00710DF80DF90DFA0DFB0DA00D44
:100242007408711C3629F8027508031C750FF9022F
:100252007608031C760FFA027708031C770FFB025D
:100262000001031C0130A0024729F8077508031892
:10027200750FF90776080318760FFA07770803183F
:10028200770FFB07000103180130A007F10DFC0BEB
:100292001B29700DF80DF90DFA0DFB0DA00D740858
:1002A200711C6529F8027508031C750FF90276089E
:1002B200031C760FFA027708031C770FFB0200017A
:1002C200031C0130A0027629F80775080318750F80
:1002D200F90776080318760FFA0777080318770FDD
:1002E200FB07000103180130A007F00D0730FC00E6
:1002F200700DF80DF90DFA0DFB0DA00D7408701CB0
:100302009429F8027508031C750FF9027608031C7C
:10031200760FFA027708031C770FFB020001031C19
:100322000130A002A529F80775080318750FF9070F
:1003320076080318760FFA0777080318770FFB077A
:10034200000103180130A007F00DFC0B7929701889
:10035200B8297408F80775080318750FF9077608A5
:100362000318760FFA0777080318770FFB070800C0
:1003720003208A110A128000840AA10A0319A20A20
:08038200F003031DB929080076
:10038A0083120313A301A40100302402031DCF2901
:10039A00323023020318EB2908160630FC00B53068
:1003AA00FD00FD0BD629FC0BD62900000000EF301A
:1003BA0088052F30FC003A30FD00FD0BE229FC0BCA
:0E03CA00E2290000A30A0319A40AC9290800A9
:1003D80083120313B101B2018F018E01043086002C
:1003E8000630FD00FD0BF629000086018618FD2960
:1003F800FA2919309000861C022AFF29183090002B
:100408000F08F100F0010E087004F5007108F600FD
:100418000030F6043208F3003108F200F001F1016F
:100428007508AD007608AE00AF01B0017008AD07E1
:1004380071080318710FAE0772080318720FAF071F
:1004480073080318730FB0070E08643C03182E2AAC
:10045800FF3087002D08A9002E08AA002F08AB003E
:100468003008AC002D08F0002E08F1002F08F2002B
:100478003008F3002230F400F501F601F7010A20F4
:10048800E830F4000330F500F601F7014120700868
:10049800A5007108A6007208A7007308A800A80C98
:0A04A800A70CA60CA50CA813080071
:1004B20083120313A301A40100302402031D632A43
:1004C2003230230203187A2A08168530FD00FD0B0C
:1004D200682AEF3088053230FC00DD30FD00FD0B6C
:1004E200702AFC0B702A00000000A30A0319A40A58
:0404F2005D2A080077
:1004F600831203138514FB3085058515EF308505BA
:0E0506008516DF30880508177F30880508004D
:1005140083120313B101B201AD01AE01AF01B00109
:10052400A901AA01AB01AC01A501A601A701A8017B
:100534008F018E0102308316860083128601C0303B
:0E0544008B0483160C141830831290000800EC
:1005520083120313A301A40100302402031DB32A52
:10056200323023020318D02A08160430FC00A130CE
:10057200FD00FD0BBA2AFC0BBA2A00000000EF3086
:1005820088053130FC000B30FD00FD0BC62AFC0B48
:10059200C62A00000000A30A0319A40AAD2A080013
:1005A2000330831203138804F33088050D30FC00F6
:1005B200FB30FD00FD0BDB2AFC0BDB2A00000000F8
:1005C200F6308805063088040D30FC00FB30FD0053
:1005D200FD0BE92AFC0BE92A00000000FC3088052B
:1005E2000C3088040D30FC00FB30FD00FD0BF72AB7
:1005F200FC0BF72A00000000F93088050930880456
:100602000D30FC00FB30FD00FD0B052BFC0B052B18
:0A06120000000000F0308805080029
:10061C0083120313A301A40100302402031D182B21
:10062C00323023020318342B08160330FC009730A9
:10063C00FD00FD0B1F2BFC0B1F2B00000000EF30EF
:10064C0088053230FC005830FD00FD0B2B2BFC0BC9
:0E065C002B2B0000A30A0319A40A122B08007E
:10066A0083120313A301A40100302402031D3F2BAC
:10067A003230230203185B2B08160530FC008A303F
:10068A00FD00FD0B462BFC0B462B0000EF308805C6
:10069A003130FC000B30FD00FD0B512BFC0B512BB4
:0E06AA0000000000A30A0319A40A392B08005F
:1006B800F930831203138805093088040D30FC00D3
:1006C800FB30FD00FD0B662BFC0B662B00000000C9
:1006D800FC3088050C3088040D30FC00FB30FD0030
:1006E800FD0B742BFC0B742B00000000F630880502
:1006F800063088040D30FC00FB30FD00FD0B822B1A
:10070800FC0B822B00000000F330880503308804BE
:100718000D30FC00FB30FD00FD0B902BFC0B902BEB
:0A07280000000000F0308805080012
:100732008316FF3083160313860083128601831605
:100742008701880101308500DF3083048A22592223
:100752000B30FB002630FC005D30FD00FD0BAF2BA3
:10076200FC0BAF2BFB0BAF2B00000000A301A4017D
:1007720000302402031DBF2B143023020318C62BA2
:100782007B22A30A0319A40AB92BEC210030280208
:10079200031DD52B00302702031DD52B0030260266
:1007A200031DD52B0A3025020318F52BA301A40142
:1007B20000302402031DDF2B413023020318E62BF5
:1007C200D122A30A0319A40AD92BA301A401003040
:1007D2002402031DEE2B823023020318F52B5C2327
:1007E200A30A0319A40AE82BA301A40100302402DE
:1007F200031DFD2B143023020318042C7B22A30AB1
:100802000319A40AF72B0630FB001330FC00AD30AD
:10081200FD00FD0B0A2CFC0B0A2CFB0B0A2C000022
:1008220000000E230B30FB002630FC005D30FD0083
:10083200FD0B192CFC0B192CFB0B192C00000000D2
:10084200EC2100302802031D302C00302702031D4A
:10085200302C00302602031D302C0A3025020318EA
:10086200502CA301A40100302402031D3A2C413074
:1008720023020318412CD122A30A0319A40A342CFF
:10088200A301A40100302402031D492C823023025B
:100892000318502C5C23A30A0319A40A432CA301B6
:1008A200A40100302402031D582C14302302031823
:1008B2005F2C7B22A30A0319A40A522C0630FB00E8
:1008C2001330FC00AD30FD00FD0B652CFC0B652CDC
:1008D200FB0B652C00000000A9220B30FB00263028
:1008E200FC005D30FD00FD0B742CFC0B742CFB0B2B
:1008F200742C00000000EC2100302802031D8B2C18
:1009020000302702031D8B2C00302602031D8B2C86
:100912000A3025020318AB2CA301A40100302402E3
:10092200031D952C4130230203189C2CD122A30ACB
:100932000319A40A8F2CA301A40100302402031D71
:10094200A42C823023020318AB2C5C23A30A0319C4
:10095200A40A9E2CA301A40100302402031DB32C7F
:10096200143023020318BA2C7B22A30A0319A40A07
:10097200AD2C0630FB001330FC00AD30FD00FD0B4A
:10098200C02CFC0BC02CFB0BC02C0000000035233C
:100992000B30FB002630FC005D30FD00FD0BCF2C40
:1009A200FC0BCF2CFB0BCF2C00000000EC21003005
:1009B2002802031DE62C00302702031DE62C00301E
:1009C2002602031DE62C0A3025020318062DA30178
:1009D200A40100302402031DF02C4130230203182D
:1009E200F72CD122A30A0319A40AEA2CA301A40119
:1009F20000302402031DFF2C823023020318062D2F
:100A02005C23A30A0319A40AF92CA301A401003050
:100A12002402031D0E2D143023020318152D7B22F0
:100A2200A30A0319A40A082D0630FB001330FC00A8
:100A3200AD30FD00FD0B1B2DFC0B1B2DFB0B1B2DED
:100A420000000000C5210B30FB002630FC005D30A9
:100A5200FD00FD0B2A2DFC0B2A2DFB0B2A2D00007D
:100A62000000EC2100302802031D412D0030270236
:100A7200031D412D00302602031D412D0A3025029F
:100A82000318612DA301A40100302402031D4B2D84
:100A9200413023020318522DD122A30A0319A40ABA
:100AA200452DA301A40100302402031D5A2D8230DA
:100AB20023020318612D5C23A30A0319A40A542DEF
:100AC200A301A40100302402031D692D1430230266
:100AD2000318702D7B22A30A0319A40A632D063082
:100AE200FB001330FC00AD30FD00FD0B762DFC0B3E
:100AF200762DFB0B762D0000000035230B30FB001A
:100B02002630FC005D30FD00FD0B852DFC0B852D94
:100B1200FB0B852D00000000EC2100302802031D94
:100B22009C2D00302702031D9C2D00302602031D40
:100B32009C2D0A3025020318BC2DA301A40100300C
:100B42002402031DA62D413023020318AD2DD1220C
:100B5200A30A0319A40AA02DA301A40100302402B0
:100B6200031DB52D823023020318BC2D5C23A30A7A
:100B72000319A40AAF2DA301A40100302402031D0E
:100B8200C42D143023020318CB2D7B22A30A031990
:100B9200A40ABE2D0630FB001330FC00AD30FD0070
:100BA200FD0BD12DFC0BD12DFB0BD12D0000000034
:100BB200A9220B30FB002630FC005D30FD00FD0B4E
:100BC200E02DFC0BE02DFB0BE02D00000000EC21E2
:100BD20000302802031DF72D00302702031DF72DD8
:100BE20000302602031DF72D0A3025020318172EA6
:100BF200A301A40100302402031D012E413023026F
:100C02000318082ED122A30A0319A40AFB2DA3015B
:100C1200A40100302402031D102E82302302031887
:100C2200172E5C23A30A0319A40A0A2EA301A40106
:100C320000302402031D1F2E143023020318262E17
:100C42007B22A30A0319A40A192E0630FB001330D3
:100C5200FC00AD30FD00FD0B2C2EFC0B2C2EFB0BF3
:100C62002C2E000000000E230B30FB002630FC006F
:100C72005D30FD00FD0B3B2EFC0B3B2EFB0B3B2E98
:100C820000000000EC2100302802031D522E00302B
:100C92002702031D522E00302602031D522E0A3057
:100CA20025020318722EA301A40100302402031DA1
:100CB2005C2E413023020318632ED122A30A0319AA
:100CC200A40A562EA301A40100302402031D6B2E98
:100CD200823023020318722E5C23A30A0319A40A8A
:100CE200652EA301A40100302402031D7A2E1430C4
:100CF20023020318812E7B22A30A0319A40A742E4D
:100D02000630FB001330FC00AD30FD00FD0B872EDA
:100D1200FC0B872EFB0B872E0000000059220B30A4
:100D2200FB002630FC005D30FD00FD0B962EFC0B17
:100D3200962EFB0B962E00000000EC2100302802BC
:100D4200031DAD2E00302702031DAD2E00302602FA
:100D5200031DAD2E0A3025020318CD2EA301A401D6
:100D620000302402031DB72E413023020318BE2E89
:100D7200D122A30A0319A40AB12EA301A4010030AF
:100D82002402031DC62E823023020318CD2E5C23BB
:0C0D9200A30A0319A40AC02EA82BCE2E21
:02400E004A2F37
:00000001FF
